:100000000C9434000C943E000C943E000C943E0082
:100010000C943E000C943E000C943E000C943E0068
:100020000C943E000C943E000C943E000C943E0058
:100030000C943E000C943E000C943E000C943E0048
:100040000C943E000C943E000C943E000C943E0038
:100050000C943E000C943E000C943E000C943E0028
:100060000C943E000C943E0011241FBECFEFD8E04C
:10007000DEBFCDBF0E944A000C940B010C9400001F
:100080001FEF1AB910E41CBD2DB527FF54C02EB5C3
:10009000122F0895389A40EE40937C0047E8409331
:1000A0007A00EEDF0C945600FCCF089570E387E0F1
:1000B0000FEF0AB904B9289842D006D05CD03FD0DF
:1000C00000E224D030E365C003E30FD038D002E370
:1000D0000CD035D008E209D032D00CE006D001E0D7
:1000E00004D02DD006E001D00895B02FB07FBBB969
:1000F0002998289A1CD028981DD0B02FB295B07F8F
:10010000BBB9289A14D0289815D00895B02FB07F85
:10011000BBB9299A289A0BD028980CD0B02FB29549
:10012000B07FBBB9289A03D0289804D00895000066
:10013000000008954AE5FBDF4A95E9F7089558E283
:10014000F9DF5A95E9F708954FEF5FEF68E26A9596
:10015000F1F75A95D9F74A95C1F70895F1E0ECE621
:100160000591003211F0D2DFFBCF0895576174651D
:10017000724C766C3A20F1E0E6E80591003211F01D
:10018000C5DFFBCF089554656D703A2047EC40936E
:100190007A00012F99277727043EDAF504361AF002
:1001A00093950456FBCF0A301AF073950A50FBCF93
:1001B0000F93930F092FAADF072F030FA7DF0F91CC
:1001C000030FA4DF00E2A2DF03E4A0DF00EC8DDF79
:1001D000B6DFC4DF00E29ADF02E399277727043E07
:1001E00004361AF093950456FBCF0A301AF0739533
:1001F0000A50FBCF0F93930F092F88DF072F030FB0
:1002000085DF0F91030F82DF00E280DF05E27EDFF2
:0A02100008950038C4CFF894FFCF22
:00000001FF
